{
  "contractName": "ERC721Token",
  "abi": [
    {
      "constant": true,
      "inputs": [
        {
          "name": "_tokenId",
          "type": "uint256"
        }
      ],
      "name": "getApproved",
      "outputs": [
        {
          "name": "",
          "type": "address"
        }
      ],
      "payable": false,
      "stateMutability": "view",
      "type": "function"
    },
    {
      "constant": false,
      "inputs": [
        {
          "name": "_to",
          "type": "address"
        },
        {
          "name": "_tokenId",
          "type": "uint256"
        }
      ],
      "name": "approve",
      "outputs": [],
      "payable": false,
      "stateMutability": "nonpayable",
      "type": "function"
    },
    {
      "constant": false,
      "inputs": [
        {
          "name": "_from",
          "type": "address"
        },
        {
          "name": "_to",
          "type": "address"
        },
        {
          "name": "_tokenId",
          "type": "uint256"
        }
      ],
      "name": "transferFrom",
      "outputs": [],
      "payable": false,
      "stateMutability": "nonpayable",
      "type": "function"
    },
    {
      "constant": false,
      "inputs": [
        {
          "name": "_from",
          "type": "address"
        },
        {
          "name": "_to",
          "type": "address"
        },
        {
          "name": "_tokenId",
          "type": "uint256"
        }
      ],
      "name": "safeTransferFrom",
      "outputs": [],
      "payable": false,
      "stateMutability": "nonpayable",
      "type": "function"
    },
    {
      "constant": true,
      "inputs": [
        {
          "name": "",
          "type": "uint256"
        }
      ],
      "name": "allTokensIndex",
      "outputs": [
        {
          "name": "mintedBy",
          "type": "address"
        },
        {
          "name": "creationTime",
          "type": "uint64"
        },
        {
          "name": "message",
          "type": "bytes32"
        },
        {
          "name": "value",
          "type": "uint256"
        }
      ],
      "payable": false,
      "stateMutability": "view",
      "type": "function"
    },
    {
      "constant": true,
      "inputs": [
        {
          "name": "_tokenId",
          "type": "uint256"
        }
      ],
      "name": "exists",
      "outputs": [
        {
          "name": "",
          "type": "bool"
        }
      ],
      "payable": false,
      "stateMutability": "view",
      "type": "function"
    },
    {
      "constant": true,
      "inputs": [
        {
          "name": "_tokenId",
          "type": "uint256"
        }
      ],
      "name": "ownerOf",
      "outputs": [
        {
          "name": "",
          "type": "address"
        }
      ],
      "payable": false,
      "stateMutability": "view",
      "type": "function"
    },
    {
      "constant": true,
      "inputs": [
        {
          "name": "_owner",
          "type": "address"
        }
      ],
      "name": "balanceOf",
      "outputs": [
        {
          "name": "",
          "type": "uint256"
        }
      ],
      "payable": false,
      "stateMutability": "view",
      "type": "function"
    },
    {
      "constant": false,
      "inputs": [
        {
          "name": "_to",
          "type": "address"
        },
        {
          "name": "_approved",
          "type": "bool"
        }
      ],
      "name": "setApprovalForAll",
      "outputs": [],
      "payable": false,
      "stateMutability": "nonpayable",
      "type": "function"
    },
    {
      "constant": false,
      "inputs": [
        {
          "name": "_from",
          "type": "address"
        },
        {
          "name": "_to",
          "type": "address"
        },
        {
          "name": "_tokenId",
          "type": "uint256"
        },
        {
          "name": "_data",
          "type": "bytes"
        }
      ],
      "name": "safeTransferFrom",
      "outputs": [],
      "payable": false,
      "stateMutability": "nonpayable",
      "type": "function"
    },
    {
      "constant": true,
      "inputs": [
        {
          "name": "_owner",
          "type": "address"
        },
        {
          "name": "_operator",
          "type": "address"
        }
      ],
      "name": "isApprovedForAll",
      "outputs": [
        {
          "name": "",
          "type": "bool"
        }
      ],
      "payable": false,
      "stateMutability": "view",
      "type": "function"
    },
    {
      "anonymous": false,
      "inputs": [
        {
          "indexed": true,
          "name": "_from",
          "type": "address"
        },
        {
          "indexed": true,
          "name": "_to",
          "type": "address"
        },
        {
          "indexed": false,
          "name": "_tokenId",
          "type": "uint256"
        }
      ],
      "name": "Transfer",
      "type": "event"
    },
    {
      "anonymous": false,
      "inputs": [
        {
          "indexed": true,
          "name": "_owner",
          "type": "address"
        },
        {
          "indexed": true,
          "name": "_approved",
          "type": "address"
        },
        {
          "indexed": false,
          "name": "_tokenId",
          "type": "uint256"
        }
      ],
      "name": "Approval",
      "type": "event"
    },
    {
      "anonymous": false,
      "inputs": [
        {
          "indexed": true,
          "name": "_owner",
          "type": "address"
        },
        {
          "indexed": true,
          "name": "_operator",
          "type": "address"
        },
        {
          "indexed": false,
          "name": "_approved",
          "type": "bool"
        }
      ],
      "name": "ApprovalForAll",
      "type": "event"
    },
    {
      "constant": true,
      "inputs": [],
      "name": "name",
      "outputs": [
        {
          "name": "",
          "type": "string"
        }
      ],
      "payable": false,
      "stateMutability": "view",
      "type": "function"
    },
    {
      "constant": true,
      "inputs": [],
      "name": "symbol",
      "outputs": [
        {
          "name": "",
          "type": "string"
        }
      ],
      "payable": false,
      "stateMutability": "view",
      "type": "function"
    },
    {
      "constant": true,
      "inputs": [
        {
          "name": "_tokenId",
          "type": "uint256"
        }
      ],
      "name": "tokenURI",
      "outputs": [
        {
          "name": "",
          "type": "string"
        }
      ],
      "payable": false,
      "stateMutability": "view",
      "type": "function"
    },
    {
      "constant": true,
      "inputs": [
        {
          "name": "_owner",
          "type": "address"
        },
        {
          "name": "_index",
          "type": "uint256"
        }
      ],
      "name": "tokenOfOwnerByIndex",
      "outputs": [
        {
          "name": "",
          "type": "uint256"
        }
      ],
      "payable": false,
      "stateMutability": "view",
      "type": "function"
    },
    {
      "constant": true,
      "inputs": [],
      "name": "totalSupply",
      "outputs": [
        {
          "name": "",
          "type": "uint256"
        }
      ],
      "payable": false,
      "stateMutability": "view",
      "type": "function"
    },
    {
      "constant": true,
      "inputs": [
        {
          "name": "_index",
          "type": "uint256"
        }
      ],
      "name": "tokenByIndex",
      "outputs": [
        {
          "name": "",
          "type": "uint256"
        }
      ],
      "payable": false,
      "stateMutability": "view",
      "type": "function"
    },
    {
      "constant": false,
      "inputs": [
        {
          "name": "_to",
          "type": "address"
        },
        {
          "name": "_value",
          "type": "uint256"
        }
      ],
      "name": "Mint",
      "outputs": [],
      "payable": false,
      "stateMutability": "nonpayable",
      "type": "function"
    }
  ],
  "bytecode": "0x60806040526040805190810160405280600981526020017f4b697474794c6f766500000000000000000000000000000000000000000000008152506004908051906020019062000051929190620000b4565b506040805190810160405280600281526020017f4b4c000000000000000000000000000000000000000000000000000000000000815250600590805190602001906200009f929190620000b4565b50348015620000ad57600080fd5b5062000163565b828054600181600116156101000203166002900490600052602060002090601f016020900481019282601f10620000f757805160ff191683800117855562000128565b8280016001018555821562000128579182015b82811115620001275782518255916020019190600101906200010a565b5b5090506200013791906200013b565b5090565b6200016091905b808211156200015c57600081600090555060010162000142565b5090565b90565b611f7180620001736000396000f3006080604052600436106100fc576000357c0100000000000000000000000000000000000000000000000000000000900463ffffffff16806306fdde0314610101578063081812fc14610191578063095ea7b3146101fe5780630f6798a51461024b57806318160ddd1461029857806323b872dd146102c35780632f745c591461033057806342842e0e1461039157806342d8edea146103fe5780634f558e791461049c5780634f6ccce7146104e15780636352211e1461052257806370a082311461058f57806395d89b41146105e6578063a22cb46514610676578063b88d4fde146106c5578063c87b56dd14610778578063e985e9c51461081e575b600080fd5b34801561010d57600080fd5b50610116610899565b6040518080602001828103825283818151815260200191508051906020019080838360005b8381101561015657808201518184015260208101905061013b565b50505050905090810190601f1680156101835780820380516001836020036101000a031916815260200191505b509250505060405180910390f35b34801561019d57600080fd5b506101bc6004803603810190808035906020019092919050505061093b565b604051808273ffffffffffffffffffffffffffffffffffffffff1673ffffffffffffffffffffffffffffffffffffffff16815260200191505060405180910390f35b34801561020a57600080fd5b50610249600480360381019080803573ffffffffffffffffffffffffffffffffffffffff16906020019092919080359060200190929190505050610978565b005b34801561025757600080fd5b50610296600480360381019080803573ffffffffffffffffffffffffffffffffffffffff16906020019092919080359060200190929190505050610b3e565b005b3480156102a457600080fd5b506102ad610b58565b6040518082815260200191505060405180910390f35b3480156102cf57600080fd5b5061032e600480360381019080803573ffffffffffffffffffffffffffffffffffffffff169060200190929190803573ffffffffffffffffffffffffffffffffffffffff16906020019092919080359060200190929190505050610b65565b005b34801561033c57600080fd5b5061037b600480360381019080803573ffffffffffffffffffffffffffffffffffffffff16906020019092919080359060200190929190505050610c7c565b6040518082815260200191505060405180910390f35b34801561039d57600080fd5b506103fc600480360381019080803573ffffffffffffffffffffffffffffffffffffffff169060200190929190803573ffffffffffffffffffffffffffffffffffffffff16906020019092919080359060200190929190505050610cf3565b005b34801561040a57600080fd5b5061042960048036038101908080359060200190929190505050610d2b565b604051808573ffffffffffffffffffffffffffffffffffffffff1673ffffffffffffffffffffffffffffffffffffffff1681526020018467ffffffffffffffff1667ffffffffffffffff168152602001836000191660001916815260200182815260200194505050505060405180910390f35b3480156104a857600080fd5b506104c760048036038101908080359060200190929190505050610d8f565b604051808215151515815260200191505060405180910390f35b3480156104ed57600080fd5b5061050c60048036038101908080359060200190929190505050610e00565b6040518082815260200191505060405180910390f35b34801561052e57600080fd5b5061054d60048036038101908080359060200190929190505050610e38565b604051808273ffffffffffffffffffffffffffffffffffffffff1673ffffffffffffffffffffffffffffffffffffffff16815260200191505060405180910390f35b34801561059b57600080fd5b506105d0600480360381019080803573ffffffffffffffffffffffffffffffffffffffff169060200190929190505050610eb5565b6040518082815260200191505060405180910390f35b3480156105f257600080fd5b506105fb610f39565b6040518080602001828103825283818151815260200191508051906020019080838360005b8381101561063b578082015181840152602081019050610620565b50505050905090810190601f1680156106685780820380516001836020036101000a031916815260200191505b509250505060405180910390f35b34801561068257600080fd5b506106c3600480360381019080803573ffffffffffffffffffffffffffffffffffffffff169060200190929190803515159060200190929190505050610fdb565b005b3480156106d157600080fd5b50610776600480360381019080803573ffffffffffffffffffffffffffffffffffffffff169060200190929190803573ffffffffffffffffffffffffffffffffffffffff16906020019092919080359060200190929190803590602001908201803590602001908080601f0160208091040260200160405190810160405280939291908181526020018383808284378201915050505050509192919290505050611117565b005b34801561078457600080fd5b506107a360048036038101908080359060200190929190505050611156565b6040518080602001828103825283818151815260200191508051906020019080838360005b838110156107e35780820151818401526020810190506107c8565b50505050905090810190601f1680156108105780820380516001836020036101000a031916815260200191505b509250505060405180910390f35b34801561082a57600080fd5b5061087f600480360381019080803573ffffffffffffffffffffffffffffffffffffffff169060200190929190803573ffffffffffffffffffffffffffffffffffffffff16906020019092919050505061121f565b604051808215151515815260200191505060405180910390f35b606060048054600181600116156101000203166002900480601f0160208091040260200160405190810160405280929190818152602001828054600181600116156101000203166002900480156109315780601f1061090657610100808354040283529160200191610931565b820191906000526020600020905b81548152906001019060200180831161091457829003601f168201915b5050505050905090565b60006001600083815260200190815260200160002060009054906101000a900473ffffffffffffffffffffffffffffffffffffffff169050919050565b600061098382610e38565b90508073ffffffffffffffffffffffffffffffffffffffff168373ffffffffffffffffffffffffffffffffffffffff16141515156109c057600080fd5b8073ffffffffffffffffffffffffffffffffffffffff163373ffffffffffffffffffffffffffffffffffffffff161480610a0057506109ff813361121f565b5b1515610a0b57600080fd5b600073ffffffffffffffffffffffffffffffffffffffff16610a2c8361093b565b73ffffffffffffffffffffffffffffffffffffffff16141580610a7c5750600073ffffffffffffffffffffffffffffffffffffffff168373ffffffffffffffffffffffffffffffffffffffff1614155b15610b3957826001600084815260200190815260200160002060006101000a81548173ffffffffffffffffffffffffffffffffffffffff021916908373ffffffffffffffffffffffffffffffffffffffff1602179055508273ffffffffffffffffffffffffffffffffffffffff168173ffffffffffffffffffffffffffffffffffffffff167f8c5be1e5ebec7d5bd14f71427d1e84f3dd0314c0f7b2291e5b200ac8c7c3b925846040518082815260200191505060405180910390a35b505050565b60006008805490509050610b538382846112b3565b505050565b6000600880549050905090565b80610b70338261144f565b1515610b7b57600080fd5b600073ffffffffffffffffffffffffffffffffffffffff168473ffffffffffffffffffffffffffffffffffffffff1614151515610bb757600080fd5b600073ffffffffffffffffffffffffffffffffffffffff168373ffffffffffffffffffffffffffffffffffffffff1614151515610bf357600080fd5b610bfd84836114e4565b610c07848361164d565b610c118383611865565b8273ffffffffffffffffffffffffffffffffffffffff168473ffffffffffffffffffffffffffffffffffffffff167fddf252ad1be2c89b69c2b068fc378daa952ba7f163c4a11628f55a4df523b3ef846040518082815260200191505060405180910390a350505050565b6000610c8783610eb5565b82101515610c9457600080fd5b600660008473ffffffffffffffffffffffffffffffffffffffff1673ffffffffffffffffffffffffffffffffffffffff16815260200190815260200160002082815481101515610ce057fe5b9060005260206000200154905092915050565b80610cfe338261144f565b1515610d0957600080fd5b610d258484846020604051908101604052806000815250611117565b50505050565b60096020528060005260406000206000915090508060000160009054906101000a900473ffffffffffffffffffffffffffffffffffffffff16908060000160149054906101000a900467ffffffffffffffff16908060010154908060020154905084565b60008060008084815260200190815260200160002060009054906101000a900473ffffffffffffffffffffffffffffffffffffffff169050600073ffffffffffffffffffffffffffffffffffffffff168173ffffffffffffffffffffffffffffffffffffffff161415915050919050565b6000610e0a610b58565b82101515610e1757600080fd5b600882815481101515610e2657fe5b90600052602060002001549050919050565b60008060008084815260200190815260200160002060009054906101000a900473ffffffffffffffffffffffffffffffffffffffff169050600073ffffffffffffffffffffffffffffffffffffffff168173ffffffffffffffffffffffffffffffffffffffff1614151515610eac57600080fd5b80915050919050565b60008073ffffffffffffffffffffffffffffffffffffffff168273ffffffffffffffffffffffffffffffffffffffff1614151515610ef257600080fd5b600260008373ffffffffffffffffffffffffffffffffffffffff1673ffffffffffffffffffffffffffffffffffffffff168152602001908152602001600020549050919050565b606060058054600181600116156101000203166002900480601f016020809104026020016040519081016040528092919081815260200182805460018160011615610100020316600290048015610fd15780601f10610fa657610100808354040283529160200191610fd1565b820191906000526020600020905b815481529060010190602001808311610fb457829003601f168201915b5050505050905090565b3373ffffffffffffffffffffffffffffffffffffffff168273ffffffffffffffffffffffffffffffffffffffff161415151561101657600080fd5b80600360003373ffffffffffffffffffffffffffffffffffffffff1673ffffffffffffffffffffffffffffffffffffffff16815260200190815260200160002060008473ffffffffffffffffffffffffffffffffffffffff1673ffffffffffffffffffffffffffffffffffffffff16815260200190815260200160002060006101000a81548160ff0219169083151502179055508173ffffffffffffffffffffffffffffffffffffffff163373ffffffffffffffffffffffffffffffffffffffff167f17307eab39ab6107e8899845ad3d59bd9653f200f220920489ca2b5937696c3183604051808215151515815260200191505060405180910390a35050565b81611122338261144f565b151561112d57600080fd5b611138858585610b65565b6111448585858561193c565b151561114f57600080fd5b5050505050565b606061116182610d8f565b151561116c57600080fd5b600a60008381526020019081526020016000208054600181600116156101000203166002900480601f0160208091040260200160405190810160405280929190818152602001828054600181600116156101000203166002900480156112135780601f106111e857610100808354040283529160200191611213565b820191906000526020600020905b8154815290600101906020018083116111f657829003601f168201915b50505050509050919050565b6000600360008473ffffffffffffffffffffffffffffffffffffffff1673ffffffffffffffffffffffffffffffffffffffff16815260200190815260200160002060008373ffffffffffffffffffffffffffffffffffffffff1673ffffffffffffffffffffffffffffffffffffffff16815260200190815260200160002060009054906101000a900460ff16905092915050565b6112bb611ea8565b6080604051908101604052803373ffffffffffffffffffffffffffffffffffffffff1681526020014267ffffffffffffffff168152602001600460405180828054600181600116156101000203166002900480156113505780601f1061132e576101008083540402835291820191611350565b820191906000526020600020905b81548152906001019060200180831161133c575b505091505060405180910390206000191681526020018381525090506113768484611b2a565b806009600085815260200190815260200160002060008201518160000160006101000a81548173ffffffffffffffffffffffffffffffffffffffff021916908373ffffffffffffffffffffffffffffffffffffffff16021790555060208201518160000160146101000a81548167ffffffffffffffff021916908367ffffffffffffffff1602179055506040820151816001019060001916905560608201518160020155905050600883908060018154018082558091505090600182039060005260206000200160009091929091909150555050505050565b60008061145b83610e38565b90508073ffffffffffffffffffffffffffffffffffffffff168473ffffffffffffffffffffffffffffffffffffffff1614806114ca57508373ffffffffffffffffffffffffffffffffffffffff166114b28461093b565b73ffffffffffffffffffffffffffffffffffffffff16145b806114db57506114da818561121f565b5b91505092915050565b8173ffffffffffffffffffffffffffffffffffffffff1661150482610e38565b73ffffffffffffffffffffffffffffffffffffffff1614151561152657600080fd5b600073ffffffffffffffffffffffffffffffffffffffff166001600083815260200190815260200160002060009054906101000a900473ffffffffffffffffffffffffffffffffffffffff1673ffffffffffffffffffffffffffffffffffffffff161415156116495760006001600083815260200190815260200160002060006101000a81548173ffffffffffffffffffffffffffffffffffffffff021916908373ffffffffffffffffffffffffffffffffffffffff160217905550600073ffffffffffffffffffffffffffffffffffffffff168273ffffffffffffffffffffffffffffffffffffffff167f8c5be1e5ebec7d5bd14f71427d1e84f3dd0314c0f7b2291e5b200ac8c7c3b925836040518082815260200191505060405180910390a35b5050565b600080600061165c8585611bda565b600760008581526020019081526020016000205492506116c86001600660008873ffffffffffffffffffffffffffffffffffffffff1673ffffffffffffffffffffffffffffffffffffffff16815260200190815260200160002080549050611d0890919063ffffffff16565b9150600660008673ffffffffffffffffffffffffffffffffffffffff1673ffffffffffffffffffffffffffffffffffffffff1681526020019081526020016000208281548110151561171657fe5b9060005260206000200154905080600660008773ffffffffffffffffffffffffffffffffffffffff1673ffffffffffffffffffffffffffffffffffffffff1681526020019081526020016000208481548110151561177057fe5b90600052602060002001819055506000600660008773ffffffffffffffffffffffffffffffffffffffff1673ffffffffffffffffffffffffffffffffffffffff168152602001908152602001600020838154811015156117cc57fe5b9060005260206000200181905550600660008673ffffffffffffffffffffffffffffffffffffffff1673ffffffffffffffffffffffffffffffffffffffff16815260200190815260200160002080548091906001900361182c9190611ef4565b50600060076000868152602001908152602001600020819055508260076000838152602001908152602001600020819055505050505050565b60006118718383611d21565b600660008473ffffffffffffffffffffffffffffffffffffffff1673ffffffffffffffffffffffffffffffffffffffff168152602001908152602001600020805490509050600660008473ffffffffffffffffffffffffffffffffffffffff1673ffffffffffffffffffffffffffffffffffffffff168152602001908152602001600020829080600181540180825580915050906001820390600052602060002001600090919290919091505550806007600084815260200190815260200160002081905550505050565b60008061195e8573ffffffffffffffffffffffffffffffffffffffff16611e79565b151561196d5760019150611b21565b8473ffffffffffffffffffffffffffffffffffffffff1663f0b9e5ba8786866040518463ffffffff167c0100000000000000000000000000000000000000000000000000000000028152600401808473ffffffffffffffffffffffffffffffffffffffff1673ffffffffffffffffffffffffffffffffffffffff16815260200183815260200180602001828103825283818151815260200191508051906020019080838360005b83811015611a2f578082015181840152602081019050611a14565b50505050905090810190601f168015611a5c5780820380516001836020036101000a031916815260200191505b50945050505050602060405180830381600087803b158015611a7d57600080fd5b505af1158015611a91573d6000803e3d6000fd5b505050506040513d6020811015611aa757600080fd5b8101908080519060200190929190505050905063f0b9e5ba7c0100000000000000000000000000000000000000000000000000000000027bffffffffffffffffffffffffffffffffffffffffffffffffffffffff1916817bffffffffffffffffffffffffffffffffffffffffffffffffffffffff19161491505b50949350505050565b600073ffffffffffffffffffffffffffffffffffffffff168273ffffffffffffffffffffffffffffffffffffffff1614151515611b6657600080fd5b611b708282611865565b8173ffffffffffffffffffffffffffffffffffffffff16600073ffffffffffffffffffffffffffffffffffffffff167fddf252ad1be2c89b69c2b068fc378daa952ba7f163c4a11628f55a4df523b3ef836040518082815260200191505060405180910390a35050565b8173ffffffffffffffffffffffffffffffffffffffff16611bfa82610e38565b73ffffffffffffffffffffffffffffffffffffffff16141515611c1c57600080fd5b611c6f6001600260008573ffffffffffffffffffffffffffffffffffffffff1673ffffffffffffffffffffffffffffffffffffffff16815260200190815260200160002054611d0890919063ffffffff16565b600260008473ffffffffffffffffffffffffffffffffffffffff1673ffffffffffffffffffffffffffffffffffffffff16815260200190815260200160002081905550600080600083815260200190815260200160002060006101000a81548173ffffffffffffffffffffffffffffffffffffffff021916908373ffffffffffffffffffffffffffffffffffffffff1602179055505050565b6000828211151515611d1657fe5b818303905092915050565b600073ffffffffffffffffffffffffffffffffffffffff1660008083815260200190815260200160002060009054906101000a900473ffffffffffffffffffffffffffffffffffffffff1673ffffffffffffffffffffffffffffffffffffffff16141515611d8e57600080fd5b8160008083815260200190815260200160002060006101000a81548173ffffffffffffffffffffffffffffffffffffffff021916908373ffffffffffffffffffffffffffffffffffffffff160217905550611e326001600260008573ffffffffffffffffffffffffffffffffffffffff1673ffffffffffffffffffffffffffffffffffffffff16815260200190815260200160002054611e8c90919063ffffffff16565b600260008473ffffffffffffffffffffffffffffffffffffffff1673ffffffffffffffffffffffffffffffffffffffff168152602001908152602001600020819055505050565b600080823b905060008111915050919050565b60008183019050828110151515611e9f57fe5b80905092915050565b608060405190810160405280600073ffffffffffffffffffffffffffffffffffffffff168152602001600067ffffffffffffffff16815260200160008019168152602001600081525090565b815481835581811115611f1b57818360005260206000209182019101611f1a9190611f20565b5b505050565b611f4291905b80821115611f3e576000816000905550600101611f26565b5090565b905600a165627a7a7230582056fad54da18c5bd4f8565220207631f645299a37cce1a00d3be1d6e2d57cfa2b0029",
  "source": "pragma solidity ^0.4.23;\n\nimport \"openzeppelin-solidity/contracts/token/ERC721/ERC721.sol\";\nimport \"openzeppelin-solidity/contracts/token/ERC721/ERC721BasicToken.sol\";\n\n\n/**\n* @title Full ERC721 Token\n* This implementation includes all the required and some optional functionality of the ERC721 standard\n* Moreover, it includes approve all functionality using operator terminology\n* @dev see https://github.com/ethereum/EIPs/blob/master/EIPS/eip-721.md\n*/\ncontract ERC721Token is ERC721, ERC721BasicToken {\n  // Token name\n  string internal name_ = \"KittyLove\";\n\n  // Token symbol\n  string internal symbol_ = \"KL\";\n\n  // Token Data type\n  struct Token {\n    address mintedBy; //token creator\n    uint64 creationTime; //token creation time\n    bytes32 message; //keccak hash of string message\n    uint value; //gift data\n  }\n\n  // Mapping from owner to list of owned token IDs\n  mapping (address => uint256[]) internal ownedTokens;\n\n  // Mapping from token ID to index of the owner tokens list\n  mapping(uint256 => uint256) internal ownedTokensIndex;\n\n  // Array with all token ids, used for enumeration\n  uint256[] internal allTokens;\n\n  // Mapping from token id to position in the allTokens array\n  mapping(uint256 => Token) public allTokensIndex;\n\n  // Optional mapping for token URIs\n  mapping(uint256 => string) internal tokenURIs;\n\n\n  /**\n  * @dev Constructor function\n  */\n  /* constructor(string _name, string _symbol) public {\n  name_ = _name;\n  symbol_ = _symbol;\n  } */\n\n  /**\n  * @dev Gets the token name\n  * @return string representing the token name\n  */\n  function name() public view returns (string) {\n    return name_;\n  }\n\n  /**\n  * @dev Gets the token symbol\n  * @return string representing the token symbol\n  */\n  function symbol() public view returns (string) {\n    return symbol_;\n  }\n\n  /**\n  * @dev Returns an URI for a given token ID\n  * @dev Throws if the token ID does not exist. May return an empty string.\n  * @param _tokenId uint256 ID of the token to query\n  */\n  function tokenURI(uint256 _tokenId) public view returns (string) {\n    require(exists(_tokenId));\n    return tokenURIs[_tokenId];\n  }\n\n  /**\n  * @dev Gets the token ID at a given index of the tokens list of the requested owner\n  * @param _owner address owning the tokens list to be accessed\n  * @param _index uint256 representing the index to be accessed of the requested tokens list\n  * @return uint256 token ID at the given index of the tokens list owned by the requested address\n  */\n  function tokenOfOwnerByIndex(address _owner, uint256 _index) public view returns (uint256) {\n    require(_index < balanceOf(_owner));\n    return ownedTokens[_owner][_index];\n  }\n\n  /**\n  * @dev Gets the total amount of tokens stored by the contract\n  * @return uint256 representing the total amount of tokens\n  */\n  function totalSupply() public view returns (uint256) {\n    return allTokens.length;\n  }\n\n  /**\n  * @dev Gets the token ID at a given index of all the tokens in this contract\n  * @dev Reverts if the index is greater or equal to the total number of tokens\n  * @param _index uint256 representing the index to be accessed of the tokens list\n  * @return uint256 token ID at the given index of the tokens list\n  */\n  function tokenByIndex(uint256 _index) public view returns (uint256) {\n    require(_index < totalSupply());\n    return allTokens[_index];\n  }\n\n  /**\n  * @dev Internal function to set the token URI for a given token\n  * @dev Reverts if the token ID does not exist\n  * @param _tokenId uint256 ID of the token to set its URI\n  * @param _uri string URI to assign\n  */\n  function _setTokenURI(uint256 _tokenId, string _uri) internal {\n    require(exists(_tokenId));\n    tokenURIs[_tokenId] = _uri;\n  }\n\n  /**\n  * @dev Internal function to add a token ID to the list of a given address\n  * @param _to address representing the new owner of the given token ID\n  * @param _tokenId uint256 ID of the token to be added to the tokens list of the given address\n  */\n  function addTokenTo(address _to, uint256 _tokenId) internal {\n    super.addTokenTo(_to, _tokenId);\n    uint256 length = ownedTokens[_to].length;\n    ownedTokens[_to].push(_tokenId);\n    ownedTokensIndex[_tokenId] = length;\n  }\n\n  /**\n  * @dev Internal function to remove a token ID from the list of a given address\n  * @param _from address representing the previous owner of the given token ID\n  * @param _tokenId uint256 ID of the token to be removed from the tokens list of the given address\n  */\n  function removeTokenFrom(address _from, uint256 _tokenId) internal {\n    super.removeTokenFrom(_from, _tokenId);\n\n    uint256 tokenIndex = ownedTokensIndex[_tokenId];\n    uint256 lastTokenIndex = ownedTokens[_from].length.sub(1);\n    uint256 lastToken = ownedTokens[_from][lastTokenIndex];\n\n    ownedTokens[_from][tokenIndex] = lastToken;\n    ownedTokens[_from][lastTokenIndex] = 0;\n    // Note that this will handle single-element arrays. In that case, both tokenIndex and lastTokenIndex are going to\n    // be zero. Then we can make sure that we will remove _tokenId from the ownedTokens list since we are first swapping\n    // the lastToken to the first position, and then dropping the element placed in the last position of the list\n\n    ownedTokens[_from].length--;\n    ownedTokensIndex[_tokenId] = 0;\n    ownedTokensIndex[lastToken] = tokenIndex;\n  }\n\n\n  function Mint(address _to, uint _value)public{\n     uint _tokenId = allTokens.length; //erc721 index id\n    _mint( _to,_tokenId, _value);\n  }\n\n  /**\n  * @dev Internal function to mint a new token\n  * @dev Reverts if the given token ID already exists\n  * @param _to address the beneficiary that will own the minted token\n  * @param _tokenId uint256 ID of the token to be minted by the msg.sender\n  */\n  function _mint(address _to, uint _tokenId, uint _value) internal {\n\n    Token memory token = Token({\n      mintedBy: msg.sender, //token creator\n      creationTime: uint64(now), //token creation time\n      message: keccak256(name_), //keccak hash of string message\n      value: _value //gift data\n      });\n\n      super._mint(_to,  _tokenId);\n\n      allTokensIndex[ _tokenId] = token;\n      allTokens.push(  _tokenId);\n\n    }\n\n    /**\n    * @dev Internal function to burn a specific token\n    * @dev Reverts if the token does not exist\n    * @param _owner owner of the token to burn\n    * @param _tokenId uint256 ID of the token being burned by the msg.sender\n    */\n\n\n    /* function _burn(address _owner, uint256 _tokenId) internal {\n    super._burn(_owner, _tokenId);\n\n    // Clear metadata (if any)\n    if (bytes(tokenURIs[_tokenId]).length != 0) {\n    delete tokenURIs[_tokenId];\n  }\n\n  // Reorg all tokens array\n  uint256 tokenIndex = allTokensIndex[_tokenId];\n  uint256 lastTokenIndex = allTokens.length.sub(1);\n  uint256 lastToken = allTokens[lastTokenIndex];\n\n  allTokens[tokenIndex] = lastToken;\n  allTokens[lastTokenIndex] = 0;\n\n  allTokens.length--;\n  allTokensIndex[_tokenId] = 0;\n  allTokensIndex[lastToken] = tokenIndex;\n  } */\n\n}\n",
  "sourcePath": "/Users/james/Documents/github/catnip/smart_contracts/contracts/ERC721Token.sol",
  "compiler": {
    "name": "solc",
    "version": "0.4.23+commit.124ca40d.Emscripten.clang"
  },
  "schemaVersion": "2.0.0",
  "updatedAt": "2018-05-17T17:40:55.407Z"
}